{"abi":[{"type":"constructor","inputs":[{"name":"name","type":"string","internalType":"string"},{"name":"symbol","type":"string","internalType":"string"},{"name":"_mintPrice","type":"uint256","internalType":"uint256"},{"name":"_maxSupply","type":"uint256","internalType":"uint256"}],"stateMutability":"nonpayable"},{"type":"function","name":"approve","inputs":[{"name":"to","type":"address","internalType":"address"},{"name":"tokenId","type":"uint256","internalType":"uint256"}],"outputs":[],"stateMutability":"nonpayable"},{"type":"function","name":"balanceOf","inputs":[{"name":"owner","type":"address","internalType":"address"}],"outputs":[{"name":"","type":"uint256","internalType":"uint256"}],"stateMutability":"view"},{"type":"function","name":"getApproved","inputs":[{"name":"tokenId","type":"uint256","internalType":"uint256"}],"outputs":[{"name":"","type":"address","internalType":"address"}],"stateMutability":"view"},{"type":"function","name":"getNextTokenId","inputs":[],"outputs":[{"name":"","type":"uint256","internalType":"uint256"}],"stateMutability":"view"},{"type":"function","name":"getStats","inputs":[],"outputs":[{"name":"currentTokenId","type":"uint256","internalType":"uint256"},{"name":"currentSupply","type":"uint256","internalType":"uint256"},{"name":"remaining","type":"uint256","internalType":"uint256"},{"name":"price","type":"uint256","internalType":"uint256"},{"name":"mintingEnabled","type":"bool","internalType":"bool"}],"stateMutability":"view"},{"type":"function","name":"isApprovedForAll","inputs":[{"name":"owner","type":"address","internalType":"address"},{"name":"operator","type":"address","internalType":"address"}],"outputs":[{"name":"","type":"bool","internalType":"bool"}],"stateMutability":"view"},{"type":"function","name":"isMintingEnabled","inputs":[],"outputs":[{"name":"","type":"bool","internalType":"bool"}],"stateMutability":"view"},{"type":"function","name":"maxSupply","inputs":[],"outputs":[{"name":"","type":"uint256","internalType":"uint256"}],"stateMutability":"view"},{"type":"function","name":"mintNFT","inputs":[{"name":"uri","type":"string","internalType":"string"}],"outputs":[{"name":"","type":"uint256","internalType":"uint256"}],"stateMutability":"payable"},{"type":"function","name":"mintPrice","inputs":[],"outputs":[{"name":"","type":"uint256","internalType":"uint256"}],"stateMutability":"view"},{"type":"function","name":"name","inputs":[],"outputs":[{"name":"","type":"string","internalType":"string"}],"stateMutability":"view"},{"type":"function","name":"owner","inputs":[],"outputs":[{"name":"","type":"address","internalType":"address"}],"stateMutability":"view"},{"type":"function","name":"ownerMint","inputs":[{"name":"uri","type":"string","internalType":"string"},{"name":"recipient","type":"address","internalType":"address"}],"outputs":[{"name":"","type":"uint256","internalType":"uint256"}],"stateMutability":"nonpayable"},{"type":"function","name":"ownerOf","inputs":[{"name":"tokenId","type":"uint256","internalType":"uint256"}],"outputs":[{"name":"","type":"address","internalType":"address"}],"stateMutability":"view"},{"type":"function","name":"remainingSupply","inputs":[],"outputs":[{"name":"","type":"uint256","internalType":"uint256"}],"stateMutability":"view"},{"type":"function","name":"renounceOwnership","inputs":[],"outputs":[],"stateMutability":"nonpayable"},{"type":"function","name":"safeTransferFrom","inputs":[{"name":"from","type":"address","internalType":"address"},{"name":"to","type":"address","internalType":"address"},{"name":"tokenId","type":"uint256","internalType":"uint256"}],"outputs":[],"stateMutability":"nonpayable"},{"type":"function","name":"safeTransferFrom","inputs":[{"name":"from","type":"address","internalType":"address"},{"name":"to","type":"address","internalType":"address"},{"name":"tokenId","type":"uint256","internalType":"uint256"},{"name":"data","type":"bytes","internalType":"bytes"}],"outputs":[],"stateMutability":"nonpayable"},{"type":"function","name":"setApprovalForAll","inputs":[{"name":"operator","type":"address","internalType":"address"},{"name":"approved","type":"bool","internalType":"bool"}],"outputs":[],"stateMutability":"nonpayable"},{"type":"function","name":"setMintPrice","inputs":[{"name":"newPrice","type":"uint256","internalType":"uint256"}],"outputs":[],"stateMutability":"nonpayable"},{"type":"function","name":"supportsInterface","inputs":[{"name":"interfaceId","type":"bytes4","internalType":"bytes4"}],"outputs":[{"name":"","type":"bool","internalType":"bool"}],"stateMutability":"view"},{"type":"function","name":"symbol","inputs":[],"outputs":[{"name":"","type":"string","internalType":"string"}],"stateMutability":"view"},{"type":"function","name":"toggleMinting","inputs":[{"name":"enabled","type":"bool","internalType":"bool"}],"outputs":[],"stateMutability":"nonpayable"},{"type":"function","name":"tokenURI","inputs":[{"name":"tokenId","type":"uint256","internalType":"uint256"}],"outputs":[{"name":"","type":"string","internalType":"string"}],"stateMutability":"view"},{"type":"function","name":"totalSupply","inputs":[],"outputs":[{"name":"","type":"uint256","internalType":"uint256"}],"stateMutability":"view"},{"type":"function","name":"transferFrom","inputs":[{"name":"from","type":"address","internalType":"address"},{"name":"to","type":"address","internalType":"address"},{"name":"tokenId","type":"uint256","internalType":"uint256"}],"outputs":[],"stateMutability":"nonpayable"},{"type":"function","name":"transferOwnership","inputs":[{"name":"newOwner","type":"address","internalType":"address"}],"outputs":[],"stateMutability":"nonpayable"},{"type":"function","name":"withdraw","inputs":[],"outputs":[],"stateMutability":"nonpayable"},{"type":"event","name":"Approval","inputs":[{"name":"owner","type":"address","indexed":true,"internalType":"address"},{"name":"approved","type":"address","indexed":true,"internalType":"address"},{"name":"tokenId","type":"uint256","indexed":true,"internalType":"uint256"}],"anonymous":false},{"type":"event","name":"ApprovalForAll","inputs":[{"name":"owner","type":"address","indexed":true,"internalType":"address"},{"name":"operator","type":"address","indexed":true,"internalType":"address"},{"name":"approved","type":"bool","indexed":false,"internalType":"bool"}],"anonymous":false},{"type":"event","name":"BatchMetadataUpdate","inputs":[{"name":"_fromTokenId","type":"uint256","indexed":false,"internalType":"uint256"},{"name":"_toTokenId","type":"uint256","indexed":false,"internalType":"uint256"}],"anonymous":false},{"type":"event","name":"MetadataUpdate","inputs":[{"name":"_tokenId","type":"uint256","indexed":false,"internalType":"uint256"}],"anonymous":false},{"type":"event","name":"MintingToggled","inputs":[{"name":"enabled","type":"bool","indexed":false,"internalType":"bool"}],"anonymous":false},{"type":"event","name":"NFTMinted","inputs":[{"name":"owner","type":"address","indexed":true,"internalType":"address"},{"name":"tokenId","type":"uint256","indexed":true,"internalType":"uint256"},{"name":"uri","type":"string","indexed":false,"internalType":"string"}],"anonymous":false},{"type":"event","name":"OwnershipTransferred","inputs":[{"name":"previousOwner","type":"address","indexed":true,"internalType":"address"},{"name":"newOwner","type":"address","indexed":true,"internalType":"address"}],"anonymous":false},{"type":"event","name":"PriceUpdated","inputs":[{"name":"newPrice","type":"uint256","indexed":false,"internalType":"uint256"}],"anonymous":false},{"type":"event","name":"Transfer","inputs":[{"name":"from","type":"address","indexed":true,"internalType":"address"},{"name":"to","type":"address","indexed":true,"internalType":"address"},{"name":"tokenId","type":"uint256","indexed":true,"internalType":"uint256"}],"anonymous":false},{"type":"event","name":"Withdrawn","inputs":[{"name":"owner","type":"address","indexed":true,"internalType":"address"},{"name":"amount","type":"uint256","indexed":false,"internalType":"uint256"}],"anonymous":false},{"type":"error","name":"ERC721IncorrectOwner","inputs":[{"name":"sender","type":"address","internalType":"address"},{"name":"tokenId","type":"uint256","internalType":"uint256"},{"name":"owner","type":"address","internalType":"address"}]},{"type":"error","name":"ERC721InsufficientApproval","inputs":[{"name":"operator","type":"address","internalType":"address"},{"name":"tokenId","type":"uint256","internalType":"uint256"}]},{"type":"error","name":"ERC721InvalidApprover","inputs":[{"name":"approver","type":"address","internalType":"address"}]},{"type":"error","name":"ERC721InvalidOperator","inputs":[{"name":"operator","type":"address","internalType":"address"}]},{"type":"error","name":"ERC721InvalidOwner","inputs":[{"name":"owner","type":"address","internalType":"address"}]},{"type":"error","name":"ERC721InvalidReceiver","inputs":[{"name":"receiver","type":"address","internalType":"address"}]},{"type":"error","name":"ERC721InvalidSender","inputs":[{"name":"sender","type":"address","internalType":"address"}]},{"type":"error","name":"ERC721NonexistentToken","inputs":[{"name":"tokenId","type":"uint256","internalType":"uint256"}]},{"type":"error","name":"OwnableInvalidOwner","inputs":[{"name":"owner","type":"address","internalType":"address"}]},{"type":"error","name":"OwnableUnauthorizedAccount","inputs":[{"name":"account","type":"address","internalType":"address"}]}],"bytecode":{"object":"0x608060405260016008556001600b5f6101000a81548160ff02191690831515021790555034801561002e575f5ffd5b5060405161389e38038061389e8339818101604052810190610050919061034e565b338484815f90816100619190610602565b5080600190816100719190610602565b5050505f73ffffffffffffffffffffffffffffffffffffffff168173ffffffffffffffffffffffffffffffffffffffff16036100e4575f6040517f1e4fbdf70000000000000000000000000000000000000000000000000000000081526004016100db9190610710565b60405180910390fd5b6100f38161010b60201b60201c565b508160098190555080600a8190555050505050610729565b5f60075f9054906101000a900473ffffffffffffffffffffffffffffffffffffffff1690508160075f6101000a81548173ffffffffffffffffffffffffffffffffffffffff021916908373ffffffffffffffffffffffffffffffffffffffff1602179055508173ffffffffffffffffffffffffffffffffffffffff168173ffffffffffffffffffffffffffffffffffffffff167f8be0079c531659141344cd1fd0a4f28419497f9722a3daafe3b4186f6b6457e060405160405180910390a35050565b5f604051905090565b5f5ffd5b5f5ffd5b5f5ffd5b5f5ffd5b5f601f19601f8301169050919050565b7f4e487b71000000000000000000000000000000000000000000000000000000005f52604160045260245ffd5b61022d826101e7565b810181811067ffffffffffffffff8211171561024c5761024b6101f7565b5b80604052505050565b5f61025e6101ce565b905061026a8282610224565b919050565b5f67ffffffffffffffff821115610289576102886101f7565b5b610292826101e7565b9050602081019050919050565b8281835e5f83830152505050565b5f6102bf6102ba8461026f565b610255565b9050828152602081018484840111156102db576102da6101e3565b5b6102e684828561029f565b509392505050565b5f82601f830112610302576103016101df565b5b81516103128482602086016102ad565b91505092915050565b5f819050919050565b61032d8161031b565b8114610337575f5ffd5b50565b5f8151905061034881610324565b92915050565b5f5f5f5f60808587031215610366576103656101d7565b5b5f85015167ffffffffffffffff811115610383576103826101db565b5b61038f878288016102ee565b945050602085015167ffffffffffffffff8111156103b0576103af6101db565b5b6103bc878288016102ee565b93505060406103cd8782880161033a565b92505060606103de8782880161033a565b91505092959194509250565b5f81519050919050565b7f4e487b71000000000000000000000000000000000000000000000000000000005f52602260045260245ffd5b5f600282049050600182168061043857607f821691505b60208210810361044b5761044a6103f4565b5b50919050565b5f819050815f5260205f209050919050565b5f6020601f8301049050919050565b5f82821b905092915050565b5f600883026104ad7fffffffffffffffffffffffffffffffffffffffffffffffffffffffffffffffff82610472565b6104b78683610472565b95508019841693508086168417925050509392505050565b5f819050919050565b5f6104f26104ed6104e88461031b565b6104cf565b61031b565b9050919050565b5f819050919050565b61050b836104d8565b61051f610517826104f9565b84845461047e565b825550505050565b5f5f905090565b610536610527565b610541818484610502565b505050565b5f5b828110156105675761055c5f82840161052e565b600181019050610548565b505050565b601f8211156105ba57828211156105b95761058681610451565b61058f83610463565b61059885610463565b60208610156105a5575f90505b8083016105b482840382610546565b505050505b5b505050565b5f82821c905092915050565b5f6105da5f19846008026105bf565b1980831691505092915050565b5f6105f283836105cb565b9150826002028217905092915050565b61060b826103ea565b67ffffffffffffffff811115610624576106236101f7565b5b61062e8254610421565b61063982828561056c565b5f60209050601f83116001811461066a575f8415610658578287015190505b61066285826105e7565b8655506106c9565b601f19841661067886610451565b5f5b8281101561069f5784890151825560018201915060208501945060208101905061067a565b868310156106bc57848901516106b8601f8916826105cb565b8355505b6001600288020188555050505b505050505050565b5f73ffffffffffffffffffffffffffffffffffffffff82169050919050565b5f6106fa826106d1565b9050919050565b61070a816106f0565b82525050565b5f6020820190506107235f830184610701565b92915050565b613168806107365f395ff3fe6080604052600436106101b6575f3560e01c8063715018a6116100eb578063caa0f92a11610089578063e985e9c511610063578063e985e9c5146105e6578063f2fde38b14610622578063f4a0a5281461064a578063fb37e88314610672576101b6565b8063caa0f92a14610568578063d5abeb0114610592578063da0239a6146105bc576101b6565b8063a22cb465116100c5578063a22cb465146104ae578063b88d4fde146104d6578063c59d4847146104fe578063c87b56dd1461052c576101b6565b8063715018a6146104445780638da5cb5b1461045a57806395d89b4114610484576101b6565b80633ccfd60b1161015857806358d9a7671161013257806358d9a767146103665780636352211e146103a25780636817c76c146103de57806370a0823114610408576101b6565b80633ccfd60b146102fe57806342842e0e1461031457806355c7ba141461033c576101b6565b8063095ea7b311610194578063095ea7b31461025c57806318160ddd1461028457806321775c92146102ae57806323b872dd146102d6576101b6565b806301ffc9a7146101ba57806306fdde03146101f6578063081812fc14610220575b5f5ffd5b3480156101c5575f5ffd5b506101e060048036038101906101db91906122d4565b6106a2565b6040516101ed9190612319565b60405180910390f35b348015610201575f5ffd5b5061020a6106b3565b60405161021791906123a2565b60405180910390f35b34801561022b575f5ffd5b50610246600480360381019061024191906123f5565b610742565b604051610253919061245f565b60405180910390f35b348015610267575f5ffd5b50610282600480360381019061027d91906124a2565b61075d565b005b34801561028f575f5ffd5b50610298610773565b6040516102a591906124ef565b60405180910390f35b3480156102b9575f5ffd5b506102d460048036038101906102cf9190612532565b610788565b005b3480156102e1575f5ffd5b506102fc60048036038101906102f7919061255d565b6107e3565b005b348015610309575f5ffd5b506103126108e2565b005b34801561031f575f5ffd5b5061033a6004803603810190610335919061255d565b610a38565b005b348015610347575f5ffd5b50610350610a57565b60405161035d9190612319565b60405180910390f35b348015610371575f5ffd5b5061038c6004803603810190610387919061260e565b610a69565b60405161039991906124ef565b60405180910390f35b3480156103ad575f5ffd5b506103c860048036038101906103c391906123f5565b610b89565b6040516103d5919061245f565b60405180910390f35b3480156103e9575f5ffd5b506103f2610b9a565b6040516103ff91906124ef565b60405180910390f35b348015610413575f5ffd5b5061042e6004803603810190610429919061266b565b610ba0565b60405161043b91906124ef565b60405180910390f35b34801561044f575f5ffd5b50610458610c56565b005b348015610465575f5ffd5b5061046e610c69565b60405161047b919061245f565b60405180910390f35b34801561048f575f5ffd5b50610498610c91565b6040516104a591906123a2565b60405180910390f35b3480156104b9575f5ffd5b506104d460048036038101906104cf9190612696565b610d21565b005b3480156104e1575f5ffd5b506104fc60048036038101906104f791906127fc565b610d37565b005b348015610509575f5ffd5b50610512610d5c565b60405161052395949392919061287c565b60405180910390f35b348015610537575f5ffd5b50610552600480360381019061054d91906123f5565b610d97565b60405161055f91906123a2565b60405180910390f35b348015610573575f5ffd5b5061057c610da9565b60405161058991906124ef565b60405180910390f35b34801561059d575f5ffd5b506105a6610db2565b6040516105b391906124ef565b60405180910390f35b3480156105c7575f5ffd5b506105d0610db8565b6040516105dd91906124ef565b60405180910390f35b3480156105f1575f5ffd5b5061060c600480360381019061060791906128cd565b610dd3565b6040516106199190612319565b60405180910390f35b34801561062d575f5ffd5b506106486004803603810190610643919061266b565b610e61565b005b348015610655575f5ffd5b50610670600480360381019061066b91906123f5565b610ee5565b005b61068c6004803603810190610687919061290b565b610f2e565b60405161069991906124ef565b60405180910390f35b5f6106ac826110d8565b9050919050565b60605f80546106c190612983565b80601f01602080910402602001604051908101604052809291908181526020018280546106ed90612983565b80156107385780601f1061070f57610100808354040283529160200191610738565b820191905f5260205f20905b81548152906001019060200180831161071b57829003601f168201915b5050505050905090565b5f61074c82611138565b50610756826111be565b9050919050565b61076f828261076a6111f7565b6111fe565b5050565b5f600160085461078391906129e0565b905090565b610790611210565b80600b5f6101000a81548160ff0219169083151502179055507f6bdfe227d5db299c59aa56d5f846f40dbd73b271aaa78e18ed74fc3e00b8aa6b816040516107d89190612319565b60405180910390a150565b5f73ffffffffffffffffffffffffffffffffffffffff168273ffffffffffffffffffffffffffffffffffffffff1603610853575f6040517f64a0ae9200000000000000000000000000000000000000000000000000000000815260040161084a919061245f565b60405180910390fd5b5f61086683836108616111f7565b611297565b90508373ffffffffffffffffffffffffffffffffffffffff168173ffffffffffffffffffffffffffffffffffffffff16146108dc578382826040517f64283d7b0000000000000000000000000000000000000000000000000000000081526004016108d393929190612a13565b60405180910390fd5b50505050565b6108ea611210565b5f4790505f8111610930576040517f08c379a000000000000000000000000000000000000000000000000000000000815260040161092790612a92565b60405180910390fd5b5f610939610c69565b73ffffffffffffffffffffffffffffffffffffffff168260405161095c90612add565b5f6040518083038185875af1925050503d805f8114610996576040519150601f19603f3d011682016040523d82523d5f602084013e61099b565b606091505b50509050806109df576040517f08c379a00000000000000000000000000000000000000000000000000000000081526004016109d690612b3b565b60405180910390fd5b6109e7610c69565b73ffffffffffffffffffffffffffffffffffffffff167f7084f5476618d8e60b11ef0d7d3f06914655adb8793e28ff7f018d4c76d505d583604051610a2c91906124ef565b60405180910390a25050565b610a5283838360405180602001604052805f815250610d37565b505050565b600b5f9054906101000a900460ff1681565b5f610a72611210565b600a546008541115610ab9576040517f08c379a0000000000000000000000000000000000000000000000000000000008152600401610ab090612ba3565b60405180910390fd5b5f6008549050610ac983826114a2565b610b168186868080601f0160208091040260200160405190810160405280939291908181526020018383808284375f81840152601f19601f820116905080830192505050505050506114bf565b808373ffffffffffffffffffffffffffffffffffffffff167fd35bb95e09c04b219e35047ce7b7b300e3384264ef84a40456943dbc0fc17c148787604051610b5f929190612bed565b60405180910390a360085f815480929190610b7990612c0f565b9190505550809150509392505050565b5f610b9382611138565b9050919050565b60095481565b5f5f73ffffffffffffffffffffffffffffffffffffffff168273ffffffffffffffffffffffffffffffffffffffff1603610c11575f6040517f89c62b64000000000000000000000000000000000000000000000000000000008152600401610c08919061245f565b60405180910390fd5b60035f8373ffffffffffffffffffffffffffffffffffffffff1673ffffffffffffffffffffffffffffffffffffffff1681526020019081526020015f20549050919050565b610c5e611210565b610c675f611519565b565b5f60075f9054906101000a900473ffffffffffffffffffffffffffffffffffffffff16905090565b606060018054610ca090612983565b80601f0160208091040260200160405190810160405280929190818152602001828054610ccc90612983565b8015610d175780601f10610cee57610100808354040283529160200191610d17565b820191905f5260205f20905b815481529060010190602001808311610cfa57829003601f168201915b5050505050905090565b610d33610d2c6111f7565b83836115dc565b5050565b610d428484846107e3565b610d56610d4d6111f7565b85858585611745565b50505050565b5f5f5f5f5f600854610d6c610773565b610d74610db8565b600954600b5f9054906101000a900460ff16945094509450945094509091929394565b6060610da2826118f1565b9050919050565b5f600854905090565b600a5481565b5f610dc1610773565b600a54610dce91906129e0565b905090565b5f60055f8473ffffffffffffffffffffffffffffffffffffffff1673ffffffffffffffffffffffffffffffffffffffff1681526020019081526020015f205f8373ffffffffffffffffffffffffffffffffffffffff1673ffffffffffffffffffffffffffffffffffffffff1681526020019081526020015f205f9054906101000a900460ff16905092915050565b610e69611210565b5f73ffffffffffffffffffffffffffffffffffffffff168173ffffffffffffffffffffffffffffffffffffffff1603610ed9575f6040517f1e4fbdf7000000000000000000000000000000000000000000000000000000008152600401610ed0919061245f565b60405180910390fd5b610ee281611519565b50565b610eed611210565b806009819055507f66cbca4f3c64fecf1dcb9ce094abcf7f68c3450a1d4e3a8e917dd621edb4ebe081604051610f2391906124ef565b60405180910390a150565b5f600b5f9054906101000a900460ff16610f7d576040517f08c379a0000000000000000000000000000000000000000000000000000000008152600401610f7490612ca0565b60405180910390fd5b600954341015610fc2576040517f08c379a0000000000000000000000000000000000000000000000000000000008152600401610fb990612d08565b60405180910390fd5b600a546008541115611009576040517f08c379a000000000000000000000000000000000000000000000000000000000815260040161100090612ba3565b60405180910390fd5b5f600854905061101933826114a2565b6110668185858080601f0160208091040260200160405190810160405280939291908181526020018383808284375f81840152601f19601f820116905080830192505050505050506114bf565b803373ffffffffffffffffffffffffffffffffffffffff167fd35bb95e09c04b219e35047ce7b7b300e3384264ef84a40456943dbc0fc17c1486866040516110af929190612bed565b60405180910390a360085f8154809291906110c990612c0f565b91905055508091505092915050565b5f634906490660e01b7bffffffffffffffffffffffffffffffffffffffffffffffffffffffff1916827bffffffffffffffffffffffffffffffffffffffffffffffffffffffff191614806111315750611130826119fc565b5b9050919050565b5f5f61114383611add565b90505f73ffffffffffffffffffffffffffffffffffffffff168173ffffffffffffffffffffffffffffffffffffffff16036111b557826040517f7e2732890000000000000000000000000000000000000000000000000000000081526004016111ac91906124ef565b60405180910390fd5b80915050919050565b5f60045f8381526020019081526020015f205f9054906101000a900473ffffffffffffffffffffffffffffffffffffffff169050919050565b5f33905090565b61120b8383836001611b16565b505050565b6112186111f7565b73ffffffffffffffffffffffffffffffffffffffff16611236610c69565b73ffffffffffffffffffffffffffffffffffffffff1614611295576112596111f7565b6040517f118cdaa700000000000000000000000000000000000000000000000000000000815260040161128c919061245f565b60405180910390fd5b565b5f5f6112a284611add565b90505f73ffffffffffffffffffffffffffffffffffffffff168373ffffffffffffffffffffffffffffffffffffffff16146112e3576112e2818486611cd5565b5b5f73ffffffffffffffffffffffffffffffffffffffff168173ffffffffffffffffffffffffffffffffffffffff161461136e576113225f855f5f611b16565b600160035f8373ffffffffffffffffffffffffffffffffffffffff1673ffffffffffffffffffffffffffffffffffffffff1681526020019081526020015f205f82825403925050819055505b5f73ffffffffffffffffffffffffffffffffffffffff168573ffffffffffffffffffffffffffffffffffffffff16146113ed57600160035f8773ffffffffffffffffffffffffffffffffffffffff1673ffffffffffffffffffffffffffffffffffffffff1681526020019081526020015f205f82825401925050819055505b8460025f8681526020019081526020015f205f6101000a81548173ffffffffffffffffffffffffffffffffffffffff021916908373ffffffffffffffffffffffffffffffffffffffff160217905550838573ffffffffffffffffffffffffffffffffffffffff168273ffffffffffffffffffffffffffffffffffffffff167fddf252ad1be2c89b69c2b068fc378daa952ba7f163c4a11628f55a4df523b3ef60405160405180910390a4809150509392505050565b6114bb828260405180602001604052805f815250611d98565b5050565b8060065f8481526020019081526020015f2090816114dd9190612ed7565b507ff8e1a15aba9398e019f0b49df1a4fde98ee17ae345cb5f6b5e2c27f5033e8ce78260405161150d91906124ef565b60405180910390a15050565b5f60075f9054906101000a900473ffffffffffffffffffffffffffffffffffffffff1690508160075f6101000a81548173ffffffffffffffffffffffffffffffffffffffff021916908373ffffffffffffffffffffffffffffffffffffffff1602179055508173ffffffffffffffffffffffffffffffffffffffff168173ffffffffffffffffffffffffffffffffffffffff167f8be0079c531659141344cd1fd0a4f28419497f9722a3daafe3b4186f6b6457e060405160405180910390a35050565b5f73ffffffffffffffffffffffffffffffffffffffff168273ffffffffffffffffffffffffffffffffffffffff160361164c57816040517f5b08ba18000000000000000000000000000000000000000000000000000000008152600401611643919061245f565b60405180910390fd5b8060055f8573ffffffffffffffffffffffffffffffffffffffff1673ffffffffffffffffffffffffffffffffffffffff1681526020019081526020015f205f8473ffffffffffffffffffffffffffffffffffffffff1673ffffffffffffffffffffffffffffffffffffffff1681526020019081526020015f205f6101000a81548160ff0219169083151502179055508173ffffffffffffffffffffffffffffffffffffffff168373ffffffffffffffffffffffffffffffffffffffff167f17307eab39ab6107e8899845ad3d59bd9653f200f220920489ca2b5937696c31836040516117389190612319565b60405180910390a3505050565b5f8373ffffffffffffffffffffffffffffffffffffffff163b11156118ea578273ffffffffffffffffffffffffffffffffffffffff1663150b7a02868685856040518563ffffffff1660e01b81526004016117a39493929190612ff8565b6020604051808303815f875af19250505080156117de57506040513d601f19601f820116820180604052508101906117db9190613056565b60015b61185f573d805f811461180c576040519150601f19603f3d011682016040523d82523d5f602084013e611811565b606091505b505f81510361185757836040517f64a0ae9200000000000000000000000000000000000000000000000000000000815260040161184e919061245f565b60405180910390fd5b805160208201fd5b63150b7a0260e01b7bffffffffffffffffffffffffffffffffffffffffffffffffffffffff1916817bffffffffffffffffffffffffffffffffffffffffffffffffffffffff1916146118e857836040517f64a0ae920000000000000000000000000000000000000000000000000000000081526004016118df919061245f565b60405180910390fd5b505b5050505050565b60606118fc82611138565b505f60065f8481526020019081526020015f20805461191a90612983565b80601f016020809104026020016040519081016040528092919081815260200182805461194690612983565b80156119915780601f1061196857610100808354040283529160200191611991565b820191905f5260205f20905b81548152906001019060200180831161197457829003601f168201915b505050505090505f6119a1611dbb565b90505f8151036119b55781925050506119f7565b5f825111156119e95780826040516020016119d19291906130bb565b604051602081830303815290604052925050506119f7565b6119f284611dd1565b925050505b919050565b5f7f80ac58cd000000000000000000000000000000000000000000000000000000007bffffffffffffffffffffffffffffffffffffffffffffffffffffffff1916827bffffffffffffffffffffffffffffffffffffffffffffffffffffffff19161480611ac657507f5b5e139f000000000000000000000000000000000000000000000000000000007bffffffffffffffffffffffffffffffffffffffffffffffffffffffff1916827bffffffffffffffffffffffffffffffffffffffffffffffffffffffff1916145b80611ad65750611ad582611e37565b5b9050919050565b5f60025f8381526020019081526020015f205f9054906101000a900473ffffffffffffffffffffffffffffffffffffffff169050919050565b8080611b4e57505f73ffffffffffffffffffffffffffffffffffffffff168273ffffffffffffffffffffffffffffffffffffffff1614155b15611c80575f611b5d84611138565b90505f73ffffffffffffffffffffffffffffffffffffffff168373ffffffffffffffffffffffffffffffffffffffff1614158015611bc757508273ffffffffffffffffffffffffffffffffffffffff168173ffffffffffffffffffffffffffffffffffffffff1614155b8015611bda5750611bd88184610dd3565b155b15611c1c57826040517fa9fbf51f000000000000000000000000000000000000000000000000000000008152600401611c13919061245f565b60405180910390fd5b8115611c7e57838573ffffffffffffffffffffffffffffffffffffffff168273ffffffffffffffffffffffffffffffffffffffff167f8c5be1e5ebec7d5bd14f71427d1e84f3dd0314c0f7b2291e5b200ac8c7c3b92560405160405180910390a45b505b8360045f8581526020019081526020015f205f6101000a81548173ffffffffffffffffffffffffffffffffffffffff021916908373ffffffffffffffffffffffffffffffffffffffff16021790555050505050565b611ce0838383611ea0565b611d93575f73ffffffffffffffffffffffffffffffffffffffff168373ffffffffffffffffffffffffffffffffffffffff1603611d5457806040517f7e273289000000000000000000000000000000000000000000000000000000008152600401611d4b91906124ef565b60405180910390fd5b81816040517f177e802f000000000000000000000000000000000000000000000000000000008152600401611d8a9291906130de565b60405180910390fd5b505050565b611da28383611f60565b611db6611dad6111f7565b5f858585611745565b505050565b606060405180602001604052805f815250905090565b6060611ddc82611138565b505f611de6611dbb565b90505f815111611e045760405180602001604052805f815250611e2f565b80611e0e84612053565b604051602001611e1f9291906130bb565b6040516020818303038152906040525b915050919050565b5f7f01ffc9a7000000000000000000000000000000000000000000000000000000007bffffffffffffffffffffffffffffffffffffffffffffffffffffffff1916827bffffffffffffffffffffffffffffffffffffffffffffffffffffffff1916149050919050565b5f5f73ffffffffffffffffffffffffffffffffffffffff168373ffffffffffffffffffffffffffffffffffffffff1614158015611f5757508273ffffffffffffffffffffffffffffffffffffffff168473ffffffffffffffffffffffffffffffffffffffff161480611f185750611f178484610dd3565b5b80611f5657508273ffffffffffffffffffffffffffffffffffffffff16611f3e836111be565b73ffffffffffffffffffffffffffffffffffffffff16145b5b90509392505050565b5f73ffffffffffffffffffffffffffffffffffffffff168273ffffffffffffffffffffffffffffffffffffffff1603611fd0575f6040517f64a0ae92000000000000000000000000000000000000000000000000000000008152600401611fc7919061245f565b60405180910390fd5b5f611fdc83835f611297565b90505f73ffffffffffffffffffffffffffffffffffffffff168173ffffffffffffffffffffffffffffffffffffffff161461204e575f6040517f73c6ac6e000000000000000000000000000000000000000000000000000000008152600401612045919061245f565b60405180910390fd5b505050565b60605f60016120618461211d565b0190505f8167ffffffffffffffff81111561207f5761207e6126d8565b5b6040519080825280601f01601f1916602001820160405280156120b15781602001600182028036833780820191505090505b5090505f82602083010190505b600115612112578080600190039150507f3031323334353637383961626364656600000000000000000000000000000000600a86061a8153600a858161210757612106613105565b5b0494505f85036120be575b819350505050919050565b5f5f5f90507a184f03e93ff9f4daa797ed6e38ed64bf6a1f0100000000000000008310612179577a184f03e93ff9f4daa797ed6e38ed64bf6a1f010000000000000000838161216f5761216e613105565b5b0492506040810190505b6d04ee2d6d415b85acef810000000083106121b6576d04ee2d6d415b85acef810000000083816121ac576121ab613105565b5b0492506020810190505b662386f26fc1000083106121e557662386f26fc1000083816121db576121da613105565b5b0492506010810190505b6305f5e100831061220e576305f5e100838161220457612203613105565b5b0492506008810190505b612710831061223357612710838161222957612228613105565b5b0492506004810190505b60648310612256576064838161224c5761224b613105565b5b0492506002810190505b600a8310612265576001810190505b80915050919050565b5f604051905090565b5f5ffd5b5f5ffd5b5f7fffffffff0000000000000000000000000000000000000000000000000000000082169050919050565b6122b38161227f565b81146122bd575f5ffd5b50565b5f813590506122ce816122aa565b92915050565b5f602082840312156122e9576122e8612277565b5b5f6122f6848285016122c0565b91505092915050565b5f8115159050919050565b612313816122ff565b82525050565b5f60208201905061232c5f83018461230a565b92915050565b5f81519050919050565b5f82825260208201905092915050565b8281835e5f83830152505050565b5f601f19601f8301169050919050565b5f61237482612332565b61237e818561233c565b935061238e81856020860161234c565b6123978161235a565b840191505092915050565b5f6020820190508181035f8301526123ba818461236a565b905092915050565b5f819050919050565b6123d4816123c2565b81146123de575f5ffd5b50565b5f813590506123ef816123cb565b92915050565b5f6020828403121561240a57612409612277565b5b5f612417848285016123e1565b91505092915050565b5f73ffffffffffffffffffffffffffffffffffffffff82169050919050565b5f61244982612420565b9050919050565b6124598161243f565b82525050565b5f6020820190506124725f830184612450565b92915050565b6124818161243f565b811461248b575f5ffd5b50565b5f8135905061249c81612478565b92915050565b5f5f604083850312156124b8576124b7612277565b5b5f6124c58582860161248e565b92505060206124d6858286016123e1565b9150509250929050565b6124e9816123c2565b82525050565b5f6020820190506125025f8301846124e0565b92915050565b612511816122ff565b811461251b575f5ffd5b50565b5f8135905061252c81612508565b92915050565b5f6020828403121561254757612546612277565b5b5f6125548482850161251e565b91505092915050565b5f5f5f6060848603121561257457612573612277565b5b5f6125818682870161248e565b93505060206125928682870161248e565b92505060406125a3868287016123e1565b9150509250925092565b5f5ffd5b5f5ffd5b5f5ffd5b5f5f83601f8401126125ce576125cd6125ad565b5b8235905067ffffffffffffffff8111156125eb576125ea6125b1565b5b602083019150836001820283011115612607576126066125b5565b5b9250929050565b5f5f5f6040848603121561262557612624612277565b5b5f84013567ffffffffffffffff8111156126425761264161227b565b5b61264e868287016125b9565b935093505060206126618682870161248e565b9150509250925092565b5f602082840312156126805761267f612277565b5b5f61268d8482850161248e565b91505092915050565b5f5f604083850312156126ac576126ab612277565b5b5f6126b98582860161248e565b92505060206126ca8582860161251e565b9150509250929050565b5f5ffd5b7f4e487b71000000000000000000000000000000000000000000000000000000005f52604160045260245ffd5b61270e8261235a565b810181811067ffffffffffffffff8211171561272d5761272c6126d8565b5b80604052505050565b5f61273f61226e565b905061274b8282612705565b919050565b5f67ffffffffffffffff82111561276a576127696126d8565b5b6127738261235a565b9050602081019050919050565b828183375f83830152505050565b5f6127a061279b84612750565b612736565b9050828152602081018484840111156127bc576127bb6126d4565b5b6127c7848285612780565b509392505050565b5f82601f8301126127e3576127e26125ad565b5b81356127f384826020860161278e565b91505092915050565b5f5f5f5f6080858703121561281457612813612277565b5b5f6128218782880161248e565b94505060206128328782880161248e565b9350506040612843878288016123e1565b925050606085013567ffffffffffffffff8111156128645761286361227b565b5b612870878288016127cf565b91505092959194509250565b5f60a08201905061288f5f8301886124e0565b61289c60208301876124e0565b6128a960408301866124e0565b6128b660608301856124e0565b6128c3608083018461230a565b9695505050505050565b5f5f604083850312156128e3576128e2612277565b5b5f6128f08582860161248e565b92505060206129018582860161248e565b9150509250929050565b5f5f6020838503121561292157612920612277565b5b5f83013567ffffffffffffffff81111561293e5761293d61227b565b5b61294a858286016125b9565b92509250509250929050565b7f4e487b71000000000000000000000000000000000000000000000000000000005f52602260045260245ffd5b5f600282049050600182168061299a57607f821691505b6020821081036129ad576129ac612956565b5b50919050565b7f4e487b71000000000000000000000000000000000000000000000000000000005f52601160045260245ffd5b5f6129ea826123c2565b91506129f5836123c2565b9250828203905081811115612a0d57612a0c6129b3565b5b92915050565b5f606082019050612a265f830186612450565b612a3360208301856124e0565b612a406040830184612450565b949350505050565b7f4e6f2066756e647320746f2077697468647261770000000000000000000000005f82015250565b5f612a7c60148361233c565b9150612a8782612a48565b602082019050919050565b5f6020820190508181035f830152612aa981612a70565b9050919050565b5f81905092915050565b50565b5f612ac85f83612ab0565b9150612ad382612aba565b5f82019050919050565b5f612ae782612abd565b9150819050919050565b7f5769746864726177616c206661696c65640000000000000000000000000000005f82015250565b5f612b2560118361233c565b9150612b3082612af1565b602082019050919050565b5f6020820190508181035f830152612b5281612b19565b9050919050565b7f4d617820737570706c79207265616368656400000000000000000000000000005f82015250565b5f612b8d60128361233c565b9150612b9882612b59565b602082019050919050565b5f6020820190508181035f830152612bba81612b81565b9050919050565b5f612bcc838561233c565b9350612bd9838584612780565b612be28361235a565b840190509392505050565b5f6020820190508181035f830152612c06818486612bc1565b90509392505050565b5f612c19826123c2565b91507fffffffffffffffffffffffffffffffffffffffffffffffffffffffffffffffff8203612c4b57612c4a6129b3565b5b600182019050919050565b7f4d696e74696e672069732064697361626c6564000000000000000000000000005f82015250565b5f612c8a60138361233c565b9150612c9582612c56565b602082019050919050565b5f6020820190508181035f830152612cb781612c7e565b9050919050565b7f496e73756666696369656e74207061796d656e740000000000000000000000005f82015250565b5f612cf260148361233c565b9150612cfd82612cbe565b602082019050919050565b5f6020820190508181035f830152612d1f81612ce6565b9050919050565b5f819050815f5260205f209050919050565b5f6020601f8301049050919050565b5f82821b905092915050565b5f60088302612d827fffffffffffffffffffffffffffffffffffffffffffffffffffffffffffffffff82612d47565b612d8c8683612d47565b95508019841693508086168417925050509392505050565b5f819050919050565b5f612dc7612dc2612dbd846123c2565b612da4565b6123c2565b9050919050565b5f819050919050565b612de083612dad565b612df4612dec82612dce565b848454612d53565b825550505050565b5f5f905090565b612e0b612dfc565b612e16818484612dd7565b505050565b5f5b82811015612e3c57612e315f828401612e03565b600181019050612e1d565b505050565b601f821115612e8f5782821115612e8e57612e5b81612d26565b612e6483612d38565b612e6d85612d38565b6020861015612e7a575f90505b808301612e8982840382612e1b565b505050505b5b505050565b5f82821c905092915050565b5f612eaf5f1984600802612e94565b1980831691505092915050565b5f612ec78383612ea0565b9150826002028217905092915050565b612ee082612332565b67ffffffffffffffff811115612ef957612ef86126d8565b5b612f038254612983565b612f0e828285612e41565b5f60209050601f831160018114612f3f575f8415612f2d578287015190505b612f378582612ebc565b865550612f9e565b601f198416612f4d86612d26565b5f5b82811015612f7457848901518255600182019150602085019450602081019050612f4f565b86831015612f915784890151612f8d601f891682612ea0565b8355505b6001600288020188555050505b505050505050565b5f81519050919050565b5f82825260208201905092915050565b5f612fca82612fa6565b612fd48185612fb0565b9350612fe481856020860161234c565b612fed8161235a565b840191505092915050565b5f60808201905061300b5f830187612450565b6130186020830186612450565b61302560408301856124e0565b81810360608301526130378184612fc0565b905095945050505050565b5f81519050613050816122aa565b92915050565b5f6020828403121561306b5761306a612277565b5b5f61307884828501613042565b91505092915050565b5f81905092915050565b5f61309582612332565b61309f8185613081565b93506130af81856020860161234c565b80840191505092915050565b5f6130c6828561308b565b91506130d2828461308b565b91508190509392505050565b5f6040820190506130f15f830185612450565b6130fe60208301846124e0565b9392505050565b7f4e487b71000000000000000000000000000000000000000000000000000000005f52601260045260245ffdfea2646970667358221220696bab530ff25371ec95bb15edad39d137b76e0e851703f486880b9d1fec5cb464736f6c63430008210033","linkReferences":{}},"methodIdentifiers":{"approve(address,uint256)":"095ea7b3","balanceOf(address)":"70a08231","getApproved(uint256)":"081812fc","getNextTokenId()":"caa0f92a","getStats()":"c59d4847","isApprovedForAll(address,address)":"e985e9c5","isMintingEnabled()":"55c7ba14","maxSupply()":"d5abeb01","mintNFT(string)":"fb37e883","mintPrice()":"6817c76c","name()":"06fdde03","owner()":"8da5cb5b","ownerMint(string,address)":"58d9a767","ownerOf(uint256)":"6352211e","remainingSupply()":"da0239a6","renounceOwnership()":"715018a6","safeTransferFrom(address,address,uint256)":"42842e0e","safeTransferFrom(address,address,uint256,bytes)":"b88d4fde","setApprovalForAll(address,bool)":"a22cb465","setMintPrice(uint256)":"f4a0a528","supportsInterface(bytes4)":"01ffc9a7","symbol()":"95d89b41","toggleMinting(bool)":"21775c92","tokenURI(uint256)":"c87b56dd","totalSupply()":"18160ddd","transferFrom(address,address,uint256)":"23b872dd","transferOwnership(address)":"f2fde38b","withdraw()":"3ccfd60b"},"id":42}